:100000000C942A000C9447000C9447000C94470071
:100010000C9447000C9447000C9447000C94470044
:100020000C9447000C9447000C9447000C94470034
:100030000C9447000C94DD020C9447000C9447008C
:100040000C9447000C9447000C9447000C94470014
:100050000C94470011241FBECFE5D8E0DEBFCDBF12
:1000600010E0A0E6B0E0E2E5F6E002C005900D92F7
:10007000AE3AB107D9F720E0AEEAB0E001C01D9278
:10008000A13BB207E1F70E94DE010C9427030C9418
:100090000000613009F043C0883068F44BB321E0C0
:1000A00030E0B90102C0660F771F8A95E2F7CB01F5
:1000B000842B8BBB089598EF980F983068F448B361
:1000C00021E030E0B90102C0660F771F9A95E2F790
:1000D000CB01842B88BB089590EF980F983068F47B
:1000E00045B321E030E0B90102C0660F771F9A9551
:1000F000E2F7CB01842B85BB089598EE980F9830DA
:1001000008F054C042B321E030E0B90102C0660FEC
:10011000771F9A95E2F7CB01842B82BB089561117A
:1001200045C0883070F44BB321E030E0B90102C023
:10013000660F771F8A95E2F7CB01809584238BBBEE
:10014000089598EF980F983070F448B321E030E0AC
:10015000B90102C0660F771F9A95E2F7CB0180952F
:10016000842388BB089590EF980F983070F445B3BE
:1001700021E030E0B90102C0660F771F9A95E2F7DF
:10018000CB018095842385BB089598EE980F983015
:1001900068F442B321E030E0B90102C0660F771F76
:1001A0009A95E2F7CB018095842382BB0895611173
:1001B00047C0883070F44AB321E030E0B90102C092
:1001C000660F771F8A95E2F7CB01809584238ABB5F
:1001D000089598EF980F983070F447B321E030E01D
:1001E000B90102C0660F771F9A95E2F7CB0180959F
:1001F000842387BB089590EF980F983070F444B330
:1002000021E030E0B90102C0660F771F9A95E2F74E
:10021000CB018095842384BB089598EE980F983085
:1002200008F052C041B321E030E0B90102C0660FCE
:10023000771F9A95E2F7CB018095842381BB0895BF
:10024000613009F041C0883068F44AB321E030E001
:10025000B90102C0660F771F8A95E2F7CB01842BA4
:100260008ABB089598EF980F983068F447B321E05F
:1002700030E0B90102C0660F771F9A95E2F7CB0113
:10028000842B87BB089590EF980F983068F444B39F
:1002900021E030E0B90102C0660F771F9A95E2F7BE
:1002A000CB01842B84BB089598EE980F983060F4AE
:1002B00041B321E030E0B90102C0660F771F9A9583
:1002C000E2F7CB01842B81BB089561E08AE10E94B3
:1002D000D70061E08BE10E94D70060E08AE10E94D4
:1002E000490060E08BE10E94490061E08EE10E94DC
:1002F000D70061E08FE10E94D70060E08EE10E94AC
:10030000490060E08FE10E944900089561E08AE1C0
:100310000E94490060E08BE10E94490060E08EE1AC
:100320000E94490061E08FE10E944900089560E069
:100330008AE10E94490061E08BE10E94490061E08E
:100340008EE10E94490060E08FE10E94490008951B
:1003500060E08AE10E94490061E08BE10E9449006F
:1003600060E08EE10E94490061E08FE10E94490057
:10037000089561E08AE10E94490060E08BE10E94FB
:10038000490061E08EE10E94490060E08FE10E9437
:100390004900089560E08AE10E94490060E08BE135
:1003A0000E94490060E08EE10E94490060E08FE118
:1003B0000E94490008958093AE00089561E08CE0AA
:1003C0000E94D70061E08DE00E94D70061E08EE0DE
:1003D0000E94D7000E946501F8944BED51E060E85F
:1003E00075E280E090E00E949A02789480E690E0C6
:1003F0000E94CE028DE00E94CA028AE00E94CA02D8
:100400002FEF89E698E1215080409040E1F700C04D
:1004100000008CE690E00E94CE028DE00E94CA02AD
:100420008AE00E94CA022FEF89E698E121508040BD
:100430009040E1F700C0000088E790E00E94CE0203
:100440008DE00E94CA028AE00E94CA022FEF89E66C
:1004500098E1215080409040E1F700C000008CE816
:1004600090E00E94CE028DE00E94CA028AE00E94C3
:10047000CA022FEF89E698E1215080409040E1F7D1
:1004800000C000008091AE00873779F40E94860199
:1004900061E08DE00E94490060E08CE00E9449002C
:1004A00060E08EE00E944900EDCF833779F40E942E
:1004B000970160E08DE00E94490060E08CE00E94BE
:1004C000490060E08EE00E944900DCCF813679F47B
:1004D0000E94B90161E08EE00E94490060E08CE07A
:1004E0000E94490060E08DE00E944900CBCF843635
:1004F00079F40E94A80161E08CE00E94490060E06C
:100500008EE00E94490060E08DE00E944900BACF71
:10051000883709F0B7CF0E94CA0160E08CE00E94E2
:10052000490060E08DE00E94490060E08EE00E949A
:100530004900A8CFCF93DF93EA01DC01CB01880FFC
:10054000991FAA1FBB1F880F991FAA1FBB1F9C01C1
:10055000AD01220F331F441F551F220F331F441FAD
:10056000551F60E072E18AE790E00E940503215088
:1005700031098AB188618AB9209729F0D093B000F7
:10058000C093AF00579A86E880BD30BD29B9DF918E
:10059000CF9108955D9BFECF8CB90895CF93DF93E3
:1005A000EC018881882331F021960E94CA0289914A
:1005B0008111FBCFDF91CF9108951F920F920FB65B
:1005C0000F9211242F933F934F935F936F937F93D9
:1005D0008F939F93AF93BF93EF93FF938CB1E09171
:1005E000AF00F091B0000995FF91EF91BF91AF91ED
:1005F0009F918F917F916F915F914F913F912F913B
:100600000F900FBE0F901F901895A1E21A2EAA1BF3
:10061000BB1BFD010DC0AA1FBB1FEE1FFF1FA217B2
:10062000B307E407F50720F0A21BB30BE40BF50BAF
:10063000661F771F881F991F1A9469F76095709538
:10064000809590959B01AC01BD01CF010895F89470
:02065000FFCFDA
:1006520041542B43574D4F44453D320041542B43A7
:1006620049504D55583D310041542B434950534553
:10067200525645523D312C313131310041542B43D8
:10068200575341503D22484146455A222C2231328D
:0E0692003334353637383931222C312C3300D1
:00000001FF
